{
  "_format": "hh-sol-artifact-1",
  "contractName": "PetAdoption",
  "sourceName": "contracts/PetAdoption.sol",
  "abi": [
    {
      "inputs": [
        {
          "internalType": "uint256",
          "name": "initialPetIndex",
          "type": "uint256"
        }
      ],
      "stateMutability": "nonpayable",
      "type": "constructor"
    },
    {
      "inputs": [],
      "name": "addPet",
      "outputs": [
        {
          "internalType": "bool",
          "name": "",
          "type": "bool"
        }
      ],
      "stateMutability": "nonpayable",
      "type": "function"
    },
    {
      "inputs": [
        {
          "internalType": "uint256",
          "name": "adoptIdx",
          "type": "uint256"
        }
      ],
      "name": "adoptPet",
      "outputs": [],
      "stateMutability": "nonpayable",
      "type": "function"
    },
    {
      "inputs": [
        {
          "internalType": "uint256",
          "name": "",
          "type": "uint256"
        }
      ],
      "name": "allAdoptedPets",
      "outputs": [
        {
          "internalType": "uint256",
          "name": "",
          "type": "uint256"
        }
      ],
      "stateMutability": "view",
      "type": "function"
    },
    {
      "inputs": [],
      "name": "getOwner",
      "outputs": [
        {
          "internalType": "address",
          "name": "",
          "type": "address"
        }
      ],
      "stateMutability": "view",
      "type": "function"
    },
    {
      "inputs": [],
      "name": "indexPet",
      "outputs": [
        {
          "internalType": "uint256",
          "name": "",
          "type": "uint256"
        }
      ],
      "stateMutability": "view",
      "type": "function"
    },
    {
      "inputs": [
        {
          "internalType": "address",
          "name": "",
          "type": "address"
        },
        {
          "internalType": "uint256",
          "name": "",
          "type": "uint256"
        }
      ],
      "name": "owneAddressToPetList",
      "outputs": [
        {
          "internalType": "uint256",
          "name": "",
          "type": "uint256"
        }
      ],
      "stateMutability": "view",
      "type": "function"
    },
    {
      "inputs": [],
      "name": "owner",
      "outputs": [
        {
          "internalType": "address",
          "name": "",
          "type": "address"
        }
      ],
      "stateMutability": "view",
      "type": "function"
    },
    {
      "inputs": [
        {
          "internalType": "uint256",
          "name": "",
          "type": "uint256"
        }
      ],
      "name": "petIdToOwnerAddress",
      "outputs": [
        {
          "internalType": "address",
          "name": "",
          "type": "address"
        }
      ],
      "stateMutability": "view",
      "type": "function"
    }
  ],
  "bytecode": "0x6080604052600060015534801561001557600080fd5b50604051610be6380380610be6833981810160405281019061003791906100bf565b336000806101000a81548173ffffffffffffffffffffffffffffffffffffffff021916908373ffffffffffffffffffffffffffffffffffffffff16021790555080600181905550506100ec565b600080fd5b6000819050919050565b61009c81610089565b81146100a757600080fd5b50565b6000815190506100b981610093565b92915050565b6000602082840312156100d5576100d4610084565b5b60006100e3848285016100aa565b91505092915050565b610aeb806100fb6000396000f3fe608060405234801561001057600080fd5b50600436106100885760003560e01c8063a002a1351161005b578063a002a13514610103578063c11d71ef14610133578063e42c151d14610163578063f0fc27781461018157610088565b806319b815771461008d57806346f43d43146100a9578063893d20e8146100c75780638da5cb5b146100e5575b600080fd5b6100a760048036038101906100a291906106f2565b6101b1565b005b6100b16103da565b6040516100be919061073a565b60405180910390f35b6100cf610454565b6040516100dc9190610796565b60405180910390f35b6100ed61047d565b6040516100fa9190610796565b60405180910390f35b61011d600480360381019061011891906106f2565b6104a1565b60405161012a91906107c0565b60405180910390f35b61014d60048036038101906101489190610807565b6104c5565b60405161015a91906107c0565b60405180910390f35b61016b6104f6565b60405161017891906107c0565b60405180910390f35b61019b600480360381019061019691906106f2565b6104fc565b6040516101a89190610796565b60405180910390f35b60015481106101f5576040517f08c379a00000000000000000000000000000000000000000000000000000000081526004016101ec906108a4565b60405180910390fd5b600073ffffffffffffffffffffffffffffffffffffffff166003600083815260200190815260200160002060009054906101000a900473ffffffffffffffffffffffffffffffffffffffff1673ffffffffffffffffffffffffffffffffffffffff1614610297576040517f08c379a000000000000000000000000000000000000000000000000000000000815260040161028e90610910565b60405180910390fd5b6102d66040518060400160405280600e81526020017f41646f7074696e67207065743a200000000000000000000000000000000000008152508261052f565b6103486040518060400160405280600b81526020017f6e6577204f776e65723a200000000000000000000000000000000000000000008152506003600084815260200190815260200160002060009054906101000a900473ffffffffffffffffffffffffffffffffffffffff166105cb565b600460003373ffffffffffffffffffffffffffffffffffffffff1673ffffffffffffffffffffffffffffffffffffffff168152602001908152602001600020819080600181540180825580915050600190039060005260206000200160009091909190915055600281908060018154018082558091505060019003906000526020600020016000909190919091505550565b60008060009054906101000a900473ffffffffffffffffffffffffffffffffffffffff1673ffffffffffffffffffffffffffffffffffffffff163373ffffffffffffffffffffffffffffffffffffffff161461043557600080fd5b600160008154809291906104489061095f565b91905055506001905090565b60008060009054906101000a900473ffffffffffffffffffffffffffffffffffffffff16905090565b60008054906101000a900473ffffffffffffffffffffffffffffffffffffffff1681565b600281815481106104b157600080fd5b906000526020600020016000915090505481565b600460205281600052604060002081815481106104e157600080fd5b90600052602060002001600091509150505481565b60015481565b60036020528060005260406000206000915054906101000a900473ffffffffffffffffffffffffffffffffffffffff1681565b6105c78282604051602401610545929190610a26565b6040516020818303038152906040527fb60e72cc000000000000000000000000000000000000000000000000000000007bffffffffffffffffffffffffffffffffffffffffffffffffffffffff19166020820180517bffffffffffffffffffffffffffffffffffffffffffffffffffffffff8381831617835250505050610667565b5050565b61066382826040516024016105e1929190610a56565b6040516020818303038152906040527f319af333000000000000000000000000000000000000000000000000000000007bffffffffffffffffffffffffffffffffffffffffffffffffffffffff19166020820180517bffffffffffffffffffffffffffffffffffffffffffffffffffffffff8381831617835250505050610667565b5050565b61067e816106766106816106a2565b63ffffffff16565b50565b60006a636f6e736f6c652e6c6f679050600080835160208501845afa505050565b6106ad819050919050565b6106b5610a86565b565b600080fd5b6000819050919050565b6106cf816106bc565b81146106da57600080fd5b50565b6000813590506106ec816106c6565b92915050565b600060208284031215610708576107076106b7565b5b6000610716848285016106dd565b91505092915050565b60008115159050919050565b6107348161071f565b82525050565b600060208201905061074f600083018461072b565b92915050565b600073ffffffffffffffffffffffffffffffffffffffff82169050919050565b600061078082610755565b9050919050565b61079081610775565b82525050565b60006020820190506107ab6000830184610787565b92915050565b6107ba816106bc565b82525050565b60006020820190506107d560008301846107b1565b92915050565b6107e481610775565b81146107ef57600080fd5b50565b600081359050610801816107db565b92915050565b6000806040838503121561081e5761081d6106b7565b5b600061082c858286016107f2565b925050602061083d858286016106dd565b9150509250929050565b600082825260208201905092915050565b7f50657420696e646578206f7574206f6620626f756e6400000000000000000000600082015250565b600061088e601683610847565b915061089982610858565b602082019050919050565b600060208201905081810360008301526108bd81610881565b9050919050565b7f5065742068617320616c72656164792061646f70746564000000000000000000600082015250565b60006108fa601783610847565b9150610905826108c4565b602082019050919050565b60006020820190508181036000830152610929816108ed565b9050919050565b7f4e487b7100000000000000000000000000000000000000000000000000000000600052601160045260246000fd5b600061096a826106bc565b91507fffffffffffffffffffffffffffffffffffffffffffffffffffffffffffffffff820361099c5761099b610930565b5b600182019050919050565b600081519050919050565b60005b838110156109d05780820151818401526020810190506109b5565b60008484015250505050565b6000601f19601f8301169050919050565b60006109f8826109a7565b610a028185610847565b9350610a128185602086016109b2565b610a1b816109dc565b840191505092915050565b60006040820190508181036000830152610a4081856109ed565b9050610a4f60208301846107b1565b9392505050565b60006040820190508181036000830152610a7081856109ed565b9050610a7f6020830184610787565b9392505050565b7f4e487b7100000000000000000000000000000000000000000000000000000000600052605160045260246000fdfea2646970667358221220fbfe041acabbc53b6a98369b78ccadd6283f2c9baf0498883802aa0bd735dbcb64736f6c63430008150033",
  "linkReferences": {},
  "deployedLinkReferences": {}
}